{
  "contractName": "Register",
  "abi": [
    {
      "constant": true,
      "inputs": [
        {
          "name": "",
          "type": "uint256"
        }
      ],
      "name": "accounts",
      "outputs": [
        {
          "name": "",
          "type": "uint256"
        }
      ],
      "payable": false,
      "stateMutability": "view",
      "type": "function",
      "signature": "0xf2a40db8"
    },
    {
      "constant": false,
      "inputs": [
        {
          "name": "_id",
          "type": "uint256"
        },
        {
          "name": "_name",
          "type": "string"
        }
      ],
      "name": "setData",
      "outputs": [],
      "payable": false,
      "stateMutability": "nonpayable",
      "type": "function",
      "signature": "0x18562dae"
    },
    {
      "constant": true,
      "inputs": [
        {
          "name": "ins",
          "type": "uint256"
        }
      ],
      "name": "getData",
      "outputs": [
        {
          "name": "",
          "type": "string"
        }
      ],
      "payable": false,
      "stateMutability": "view",
      "type": "function",
      "signature": "0x0178fe3f"
    }
  ],
  "bytecode": "0x608060405234801561001057600080fd5b50610447806100206000396000f3fe608060405260043610610057576000357c0100000000000000000000000000000000000000000000000000000000900463ffffffff1680630178fe3f1461005c57806318562dae14610110578063f2a40db8146101e2575b600080fd5b34801561006857600080fd5b506100956004803603602081101561007f57600080fd5b8101908080359060200190929190505050610231565b6040518080602001828103825283818151815260200191508051906020019080838360005b838110156100d55780820151818401526020810190506100ba565b50505050905090810190601f1680156101025780820380516001836020036101000a031916815260200191505b509250505060405180910390f35b34801561011c57600080fd5b506101e06004803603604081101561013357600080fd5b81019080803590602001909291908035906020019064010000000081111561015a57600080fd5b82018360208201111561016c57600080fd5b8035906020019184600183028401116401000000008311171561018e57600080fd5b91908080601f016020809104026020016040519081016040528093929190818152602001838380828437600081840152601f19601f8201169050808301925050505050505091929192905050506102e8565b005b3480156101ee57600080fd5b5061021b6004803603602081101561020557600080fd5b8101908080359060200190929190505050610353565b6040518082815260200191505060405180910390f35b60606000808381526020019081526020016000206001018054600181600116156101000203166002900480601f0160208091040260200160405190810160405280929190818152602001828054600181600116156101000203166002900480156102dc5780601f106102b1576101008083540402835291602001916102dc565b820191906000526020600020905b8154815290600101906020018083116102bf57829003601f168201915b50505050509050919050565b600080600084815260200190815260200160002090508281600001819055508181600101908051906020019061031f929190610376565b5060018084908060018154018082558091505090600182039060005260206000200160009091929091909150555050505050565b60018181548110151561036257fe5b906000526020600020016000915090505481565b828054600181600116156101000203166002900490600052602060002090601f016020900481019282601f106103b757805160ff19168380011785556103e5565b828001600101855582156103e5579182015b828111156103e45782518255916020019190600101906103c9565b5b5090506103f291906103f6565b5090565b61041891905b808211156104145760008160009055506001016103fc565b5090565b9056fea165627a7a7230582015501e282c328a179fec0648fcd88591fd49d63ad4be954fbaa613e2f08b7f470029",
  "source": "pragma solidity ^0.5.0;\r\ncontract Register{\r\n    struct Data {\r\n        uint id;\r\n        string name;\r\n      \r\n    }\r\nmapping (uint => Data) data;\r\nuint[] public accounts;\r\n\r\n\r\nfunction setData(uint _id, string memory _name) public {\r\n    Data storage acc = data[_id];\r\n\r\n    acc.id = _id;\r\n    acc.name = _name;\r\n    accounts.push(_id) -1;\r\n}\r\nfunction getData(uint ins) public view returns(string memory){\r\n    return (data[ins].name);\r\n}\r\n\r\n}",
  "sourcePath": "C:/Users/hp 1/Regis/contracts/Register.sol",
  "compiler": {
    "name": "solc",
    "version": "0.5.0+commit.1d4f565a.Emscripten.clang"
  },
  "schemaVersion": "3.0.1",
  "updatedAt": "2019-03-08T14:29:47.608Z",
  "devdoc": {
    "methods": {}
  },
  "userdoc": {
    "methods": {}
  }
}